:020000040800F2
:10000000780A002069020008B9110008E107000819
:10001000B511000859050008D519000800000000B6
:100020000000000000000000000000004D14000867
:100030005D05000800000000491200086515000871
:10004000830200088302000883020008830200087C
:10005000830200088302000883020008830200086C
:10006000830200088302000883020008830200085C
:10007000830200088302000883020008830200084C
:10008000830200088302000883020008830200083C
:10009000830200088302000883020008830200082C
:1000A000830200088302000883020008830200081C
:1000B00083020008D11500088302000883020008AB
:1000C00083020008830200088302000883020008FC
:1000D0008302000839170008BD17000883020008D2
:1000E00083020008830200088302000883020008DC
:1000F00083020008830200088302000883020008CC
:1001000083020008830200088302000883020008BB
:1001100083020008830200088302000883020008AB
:10012000830200088302000883020008830200089B
:10013000830200088302000883020008830200088B
:10014000830200088302000883020008830200087B
:10015000830200088302000883020008830200086B
:10016000830200088302000883020008830200085B
:10017000830200088302000883020008830200084B
:10018000830200088302000800F002F800F05CF827
:100190000AA090E8000C82448344AAF10107DA45E2
:1001A00001D100F051F8AFF2090EBAE80F0013F0D8
:1001B000010F18BFFB1A43F0010318476C440000FD
:1001C0008C4400000A444FF0000C10F8013B13F07F
:1001D000070408BF10F8014B1D1108BF10F8015BA0
:1001E000641E05D010F8016B641E01F8016BF9D193
:1001F00013F0080F1EBF10F8014BAD1C0C1B09D1EA
:100200006D1E58BF01F801CBFAD505E014F8016B5B
:1002100001F8016B6D1EF9D59142D6D370470000ED
:100220000023002400250026103A28BF78C1FBD8FF
:10023000520728BF30C148BF0B6070471FB504F09C
:10024000C5F81FBD10B510BD00F058F91146FFF7F5
:10025000F5FF02F0C7FC00F076F903B4FFF7F2FFF8
:1002600003BC02F0C9FA000009488047094800476A
:10027000FEE7FEE7FEE7FEE7FEE7FEE7FEE7FEE756
:10028000FEE7FEE704480549054A064B70470000B3
:10029000691500088901000878040020780A002008
:1002A0007806002078060020704710B54C1084EACC
:1002B000530404D54042C1F1000138BF491E1B421E
:1002C00004D55242C3F1000338BF5B1E00F05AF858
:1002D00014F0804F04D04042C1F1000138BF491EE4
:1002E00014F0004F04D05242C3F1000338BF5B1E2C
:1002F00010BD032A40F2308010F0030C00F015808E
:1003000011F8013BBCF1020F624498BF11F801CB18
:1003100000F8013B38BF11F8013BA2F1040298BF7D
:1003200000F801CB38BF00F8013B11F0030300F0E7
:10033000AB80083AC0F0088051F8043B083A51F805
:1003400004CBA0E80810F5E7121D5CBF51F8043B90
:1003500040F8043BAFF30080D20724BF11F8013B03
:1003600011F801CB48BF11F8012B24BF00F8013B65
:1003700000F801CB48BF00F8012B70477047704769
:100380007047704753EA020C00F069802DE9F04B8A
:100390004FF00006002B1FBFB3FA83F503FA05F4F4
:1003A00024FA05F65E4012BF1643B2FA82F502FA4D
:1003B00005F4C5F120051EBF22FA05FC44EA0C0431
:1003C000203556EA044C4FEA144418BF641C4FF021
:1003D00000084FF00009904271EB030C39D300295B
:1003E00019BFB1FA81F701FA07F6B0FA80F700FAFF
:1003F00007F6C7F120071EBF20FA07FC46EA0C06E5
:100400002037B6FBF4FCA7EB0507103F07F01F0BE6
:10041000CBF120060CFA0BFB2CFA06F644BFB346D0
:100420000026202FA4BF5E464FF0000B5BEA060CAF
:1004300008BF4FF0010B19EB0B09ABFB027C48EB3B
:100440000608C01B06FB02CC0BFB03CC71EB0C01B6
:10045000C1E70B46024641464846BDE8F08B13B55E
:100460004FF000004FF00001AFF30080BDE81C40EA
:10047000704710B500F03AF8006810BD10B504469A
:1004800000F034F8046010BD10B5203AC0F00B80C5
:10049000B1E81850203AA0E81850B1E81850A0E888
:1004A0001850BFF4F5AF5FEA027C24BFB1E81850E2
:1004B000A0E8185044BF18C918C0BDE810405FEA52
:1004C000827C24BF51F8043B40F8043B08BF7047CE
:1004D000D20728BF31F8023B48BF11F8012B28BFD3
:1004E00020F8023B48BF00F8012B704700487047D6
:1004F0001804002000487047180400207546FFF7D4
:10050000F9FFAE4605006946534620F007008546D0
:1005100018B020B5FFF7B6FEBDE820404FF000064A
:100520004FF000074FF000084FF0000B21F00701DB
:10053000AC46ACE8C009ACE8C009ACE8C009ACE81E
:10054000C0098D46704710B50446AFF300802046C1
:10055000BDE81040FFF781BE00BFFEE77047000016
:1005600030B10749096841F48061054A116005E02E
:100570000349096821F48061014A11607047000055
:10058000003C024070B504460A460026092502B91F
:1005900009E0012A01D1160205E0022A01D1160262
:1005A00001E04FF4407600F09FF80546092D28D170
:1005B0001548006820F44070134908600846006838
:1005C000304308600846006820F0F80008600846DC
:1005D000006844F0020108430B49086008460068BF
:1005E00040F48030086000F07FF805460648006857
:1005F00020F00200044908600846006820F0F80076
:100600000860284670BD0000103C024009201349D4
:10061000096801F48031B1F5803F01D101201CE06F
:100620000E49096801F0100109B1062015E00B49D7
:10063000096801F4807109B102200EE007490968D8
:1006400001F0EF0109B1072007E00449096801F052
:10065000020109B1082000E0092070470C3C02406B
:100660000348006840F000400149086070470000FE
:10067000103C024030B502460C46092500F034F823
:100680000546092D19D10E48006820F440700C4928
:1006900008600846006840F400700860084600687A
:1006A00040F001000860146000F01EF805460448A0
:1006B000006820F0010002490860284630BD0000B3
:1006C000103C02400548006800F0004028B1044892
:1006D00002490C390860034808607047103C02402A
:1006E00023016745AB89EFCD08B509200090FFF7DE
:1006F0008DFF009002E0FFF789FF00909DF8000059
:100700000128F8D09DF8000008BDF0B50A46002188
:100710000023002400BF3DE0012505FA01F3156820
:1007200005EA03049C4234D105684F000326BE400D
:10073000B543056015794E00B54006683543056040
:100740001579012D02D01579022D16D185684F003B
:100750000326BE40B543856055794E00B540866896
:1007600035438560456801268E40B5434560456840
:1007700096798E40B6B235434560C5684F00032672
:10078000BE40B543C560D5794E00B540C668354317
:10079000C560491C1029BFD3F0BDF0B5002300246B
:1007A0004D07ED0E02FA05F3CE1000F1200555F8C5
:1007B00026504E07F70E0F26BE40B543CF1000F16E
:1007C000200646F82750CE1000F1200555F8265097
:1007D00045EA0304CE1000F1200545F82640F0BD9F
:1007E00000BFFEE710B500200F4908600F48006801
:1007F00020F440000D4908600846006840F480007D
:10080000086000200A49C1F8AC02022002F07EF81C
:10081000012005490860022002F078F80020044910
:10082000C1F8A80210BD0000A80242420010024018
:10083000000042421CB50121102000F007FD4FF4DA
:100840004060009001208DF8040000208DF8060023
:1008500003208DF8050001208DF807006946054842
:10086000FFF753FF0120044908600449C1F8AC02B6
:100870001CBD000000100240A8024242000042429B
:1008800010B500200F4908600F48006820F44000B0
:100890000D4908600846006840F4800008600120A7
:1008A0000A49C1F8AC02022002F030F801200549E3
:1008B0000860022002F02AF800200449C1F8A802CA
:1008C00010BD0000A8024242001002400000424257
:1008D00070B5054600241648006820F4400014490D
:1008E0000860084600680860002616E000201149EC
:1008F0000860022002F00AF801200F49C1F8A8029E
:100900006006040E0B487C38006808B1601CC4B255
:10091000012001F0FBFF701CC6B2082EE6DB15B902
:10092000FFF7AEFF01E0FFF75DFF204670BD00005E
:1009300000100240A80242420000424270B5044644
:100940001548006820F44000134908600846006814
:1009500040F480000860002010490860002517E07E
:10096000E0090E49091D08606006040E022001F02E
:10097000CDFF01200A49C1F8A802022001F0C6FFFC
:10098000002006490860022001F0C0FF681CC5B2C3
:10099000082DE5DB70BD000000100240A8024242B5
:1009A0000000424210B50F48006820F440000D4995
:1009B00008600846006840F48000086001200A4989
:1009C00008600A49C1F8A802042001F09FFF002036
:1009D00005490860042001F099FF00200349C1F88F
:1009E000A80210BD00100240AC0242420000424288
:1009F00010B50F48006820F440000D490860084613
:100A0000006840F48000086000200A4908600A4934
:100A1000C1F8AC02042001F079FF0120054908600B
:100A20000549C1F8AC02042001F070FF10BD0000C0
:100A300000100240A80242420000424210B50024C9
:100A40001348006820F44000114908600846006817
:100A5000086001200F49086001F058FF01200E498D
:100A6000C1F8A80201F052FF07E0601CC4B2FA2CE2
:100A700003DDFFF7BDFF012010BD06488038006888
:100A80000028F2D10349091F086000BFF4E7000005
:100A900000100240AC0242420000424210B527481A
:100AA0000078FA2813D125484078AF280FD1234881
:100AB00090F82700FB280AD1204890F82800BF288A
:100AC00005D124221D49891C1D48FFF712FC1C4832
:100AD00090ED000A1B4880ED000A194890ED010ACC
:100AE000184880ED010A164890ED020A154880ED7D
:100AF000020A134890ED030A124880ED030A1048D9
:100B000090ED040A0F4880ED040A0D4890ED050AA7
:100B10000C4880ED050A0A4890ED060A094880ED68
:100B2000060A074890ED070A064880ED070A0448C0
:100B300090ED080A034880ED080A10BDA4030020C8
:100B4000D0030020F403002070B51E2000F0FBFA53
:100B5000052001F0BFFE00241BE0A02101EB4401B1
:100B6000C8B200F0F0FA022001F0B4FE00F0E2FAA0
:100B70000120FFF7ADFE05460020FFF7A9FE06465F
:100B8000FFF736FF46EA05200F4921F81400601CE4
:100B9000C4B2082CE1DD0C4840880C4908800A48A2
:100BA000808848800848C088888007480089C880B5
:100BB00005484089088104488089488102480088A6
:100BC000000B888170BD0000920300208403002088
:100BD00010B5482000F0B7FA142001F07BFE10BDDC
:100BE00070B5002000F0AFFA00F0A4FA0120FFF782
:100BF0006FFE04460120FFF76BFE06460020FFF75C
:100C000067FE0546FFF7F4FE200440EA062028436D
:100C10000149086070BD000018010020F0B52DEDFD
:100C20000E8B83B00446FE480089FE490968A1EB9B
:100C300000200021FC4A03C29FEDFC1B9FEDFD0B31
:100C400000F0E2FEB0EE40BAF0EE60BAF448808800
:100C50000025F54E42CEA0FB012C05FB01C100FB97
:100C60000611104602F0ECFF53EC1B2B02F04CFE79
:100C700041EC190B9FEDF11B9FEDEE0B00F0C4FE54
:100C8000B0EE40BAF0EE60BAE549088803F029F802
:100C900053EC1B2B03F074F853EC192B02F078FD86
:100CA00003F09EFBE74A03C29FEDE71B9FEDE10BBC
:100CB00000F0AAFEB0EE40BAF0EE60BAD848C088A4
:100CC0000021D94DD5E90065A0FB062C01FB06C12A
:100CD00000FB0511104602F0B3FF53EC1B2B02F092
:100CE00013FE41EC1A0B9FEDDA1B9FEDD20B00F0C7
:100CF0008BFEB0EE40BAF0EE60BAC949488802F007
:100D0000F0FF53EC1B2B03F03BF853EC1A2B02F0D3
:100D10003FFD03F065FBD04A03C2C34903C903F09A
:100D200028FB0BEE100A9FEDCD1B9FEDC20B00F0D0
:100D30006BFEB0EE409AF0EE609AB949488902F035
:100D4000D0FF53EC192B02F0DFFD02F0EFFC00EEB8
:100D5000100A2BEE000ABDEEC00A10EE100A00F5D4
:100D6000FA60C117BF4A03C2BE48D0E900204FF461
:100D7000FA63D21A70F100007EDA9FEDBB1B9FED83
:100D8000AD0B00F041FEB0EE409AF0EE609AA6493D
:100D90000326002721C9A0FB061C05FB06C500FB96
:100DA0000756A148D0E90050A1FB052C06FB05C55C
:100DB00001FB0051104602F043FF53EC192B02F0E7
:100DC000A3FD03F00DFBAA4A03C2A648D0E9001018
:100DD0004FF4FA63CA1A60F100000323A2FB031C5C
:100DE00000FB03C002FB07029E48D0E900C04FF49D
:100DF000FA67BCEB070760F10000A1FB075C02FB90
:100E000007C201FB0021022200232846FFF74DFA0A
:100E1000984A03C29348D0E900104FF4FA63CA1A03
:100E200060F1000005270021A2FB073C00FB07C082
:100E300002FB01018B48D0E900204FF4FA6CB2EBC1
:100E40000C0260F10007A3FB025C01FB02C103FB83
:100E50000711082200232846FFF727FA864A03C213
:100E60008048D0E90020854BD21A70F1FF304FDA6C
:100E70007C48D0E9001000E04BE05B42C91840F12B
:100E8000000007220023A1FB025600FB026001FBC9
:100E900003017448D0E9002040F2DC569219434126
:100EA000A5FB020601FB026105FB03157149D1E9AF
:100EB00000310246D21845EB01006E49C1E900201D
:100EC0006848D0E9001040F2DC53CA1840F1000035
:100ED00004250021A2FB053600FB056002FB010290
:100EE0006048D0E9001040F2DC56891940F1000555
:100EF000A3FB010602FB016103FB05155E49D1E975
:100F000000310246D21845EB01005B49C1E90020DF
:100F100053E09FED5B1B9FED470B00F075FDB0EEBE
:100F2000409AF0EE609A40480226002722C8A1FBB2
:100F3000060C05FB06C501FB07573B49D1E90065D7
:100F400001463846A1FB062C00FB06C001FB05014B
:100F5000104602F075FE53EC192B02F0D5FC03F09D
:100F60003FFA434A03C23F48D0E900204FF4FA63F6
:100F7000D21A60F1000001230027A2FB031C00FB32
:100F800003C002FB07023748D0E900304FF4FA6C87
:100F9000B3EB0C0360EB0700A1FB035C02FB03C295
:100FA00001FB002110223B462846FFF77EF9314A1B
:100FB00003C20021304A116051602A48D0E9006024
:100FC000314D22CD721A60EB0501104603F0D1F9C4
:100FD00002902148D0E900202649D1E90031D21AF7
:100FE00060EB01002949C1E900201648D0E9002042
:100FF0002149D1E90031D21A60EB01002449C1E94D
:1010000000209FED241B9FED0B0B00F0FDFCB0EECC
:10101000409AF0EE609A1D4903C902F011FE3DE0CE
:10102000840300201C01002020010020000000009B
:1010300000001C4000000000000000400000000014
:10104000000030404801002000000000000018406F
:1010500000000000000031403001002000000000CE
:1010600000003740280100200000000000804040C0
:1010700060010020380100205001002024FAFFFF09
:101080000000000000804240680100204001002074
:10109000580100200000000000002E4041EC1B0B16
:1010A0009FED1E1B1FED1D0B00F0AEFCB0EE40DAF5
:1010B000F0EE60DA1B48006800261B49D1E90051B8
:1010C000A0FB052C06FB05C501FB0051104602F0F4
:1010D000B7FD53EC1D2B02F017FC53EC1B2B03F058
:1010E0005BF853EC192B02F00FFC02F065FD019048
:1010F0000E48D0E900600E49D1E90051721B60EB47
:101100000101104603F035F90290DDE90101C4E95F
:10111000000103B0BDEC0E8BF0BD0000000000002C
:10112000000035401801002058010020280100204F
:101130006001002010B5FFF735FCED20FFF7FEFB46
:10114000FFF77CFC10BD10B50446FFF72BFCEC202C
:10115000FFF7F4FBFFF772FC2046FFF7EFFBFFF70A
:101160006DFCFFF745FC10BD10B55820FFF7EBFFF5
:10117000142001F0AFFB10BD70B50020FFF7E3FFB6
:10118000FFF7D8FF0120FFF7A3FB04460120FFF77C
:101190009FFB06460020FFF79BFB0546FFF728FC58
:1011A000200440EA062028430149086070BD000081
:1011B0001C01002000BFFEE77047000070B5002151
:1011C00000230F22C4781CB3174C246804F4E06495
:1011D000C4F5E064C4F30721C1F10404E3B20A4199
:1011E00044789C40E1B28478144021430C07210EDE
:1011F0000E4C05786155047804F01F050124AC40BD
:1012000005786D11AD0005F1E025C5F8004109E054
:10121000047804F01F050124AC40054D06787611D2
:1012200045F8264070BD00000CED00E000E400E051
:1012300080E100E002490143024A1160704700006A
:101240000000FA050CED00E07047000029B1064AE5
:1012500012680243044B1A6004E0034A1268824396
:10126000014B1A60704700003038024029B1064A2D
:1012700012680243044B1A6004E0034A1268824376
:10128000014B1A60704700004038024029B1064AFD
:1012900012680243044B1A6004E0034A1268824356
:1012A000014B1A607047000044380240F0B500213D
:1012B00000220024022500260223324F3F6807F057
:1012C0000C0121B1042905D0082937D105E02E4FA2
:1012D000076036E02D4F076033E02A4F3F1F3F681D
:1012E000C7F38056274F3F1F3F6807F03F036EB19B
:1012F000264FB7FBF3F7DFF88CC0ACF1040CDCF839
:1013000000C0CCF3881C07FB0CF40CE01E4FB7FBAD
:10131000F3F7DFF870C0ACF1040CDCF800C0CCF3DC
:10132000881C07FB0CF4174F3F1F3F68C7F30147AA
:101330007F1C7D00B4FBF5F7076002E0124F0760E9
:1013400000BF00BF0F4F3F6807F0F0010909104FC1
:101350007A5C0768D74047600A4F3F6807F4E0515E
:10136000890A0B4F7A5C4768D7408760054F3F6812
:1013700007F46041490B064F7A5C4768D740C76065
:10138000F0BD0000083802400024F40000127A008A
:101390009A01002030B503460C461546002206E0AF
:1013A000184600F007F844F822001B1D521CAA4200
:1013B000F6D330BD01460868704700002DE9F047BC
:1013C00004460E4617464FF009080025A946B4F119
:1013D000006F02D304F0030008B1BDE8F087FFF707
:1013E00071F90020FFF7BCF8254604EB8709164881
:1013F000854212D20EE02846FFF7DCFF401C40B1C8
:1014000002213820FFF7BEF88046B8F1090F01D05D
:1014100002E02D1D4D45EED300BFB8F1090F0CD1F0
:1014200008E020463168FFF725F9092800D003E0DD
:10143000241D361D4C45F4D300BF0120FFF790F862
:10144000FFF70EF900BFC8E70000FF1F704700005C
:101450000CB50020019000903448006840F48030C2
:101460003249086000BF3148006800F40030009045
:101470000198401C0190009818B90198B0F5A04F50
:10148000F1D12A48006800F4003010B1012000902A
:1014900001E0002000900098012846D12348403008
:1014A000006840F0805021494031086020480068C1
:1014B00040F440401E4908601C48083000681B4941
:1014C000083108600846006840F40040086008469B
:1014D000006840F4A05008601648091F0860081F03
:1014E000006840F08070091F086000BF0F48006866
:1014F00000F000700028F9D040F205700E49086035
:101500000A480830006820F00300084908310860E4
:101510000846006840F00200086000BF0348083039
:10152000006800F00C000828F8D10CBD003802401B
:101530000070004008544007003C0240042808D1D5
:101540004FF0E021096941F004014FF0E022116100
:1015500007E04FF0E021096921F004014FF0E0229B
:10156000116170477047000010B51548006840F4DD
:101570007000134908601348006840F001001149E9
:10158000086000200F49083108600E4800680E49C5
:1015900008400C4908600D48091D0860081F0068D4
:1015A00020F48020091F0860002006490C310860E3
:1015B000FFF74EFF4FF0006001498039086010BD11
:1015C00088ED00E000380240FFFFF6FE10300024F6
:1015D00010B50121084800F052F8012806D107494A
:1015E000087007480078401C05490870012102482E
:1015F00000F036F810BD0000000400401501002086
:10160000160100207FB505460C4601210220FFF798
:101610002DFE0295ADF804400020ADF80600ADF8AF
:101620000C0001A90D4800F045F8012211460B48B5
:1016300000F036F80121094800F015F81D208DF85A
:10164000000001208DF8010003208DF80200012028
:101650008DF803006846FFF7B1FD7FBD0004004030
:10166000CA430282704721B1028842F0010202801F
:1016700004E002884FF6FE731A400280704730B5CE
:101680000246002000230024158A05EA01039589FB
:1016900005EA010413B10CB1012000E0002030BDC7
:1016A0001AB183890B43838102E083898B43838151
:1016B0007047000000220288184B98420ED0184B49
:1016C00098420BD0B0F1804F08D0164B984205D00D
:1016D000154B984202D0154B984204D14FF68F73A8
:1016E0001A404B881A43124B984207D0114B98422C
:1016F00004D04FF6FF431A400B891A4302804B680F
:10170000C3620B880385054B984202D0044B984274
:1017100001D18B7A03860123838270470000014048
:10172000000401400004004000080040000C00409C
:10173000001000400014004010B500BF40211B48BD
:1017400000F06CF840F22551184800F089F858B1C3
:1017500016488088C1B2164802880088401C144B85
:101760001880144881541FE01021104800F06BF8D5
:10177000D0B10E480088C4B20C488088C4B20020A2
:101780000B4908800B480078FE280DD109484078A5
:10179000FE2809D1074890F82700FD2804D1282207
:1017A00004490548FEF7A5FD10BD000000100140EA
:1017B0004C000020AC0100202400002010B500BF28
:1017C0004021134800F02AF840F22551104800F05B
:1017D00047F860B10E48001D0088C1B20D4802787C
:1017E0000078401C0B4B18700B4881540EE0102100
:1017F000074800F028F848B105480088C4B20448FA
:10180000001D0088C4B200200249087010BD00000D
:101810000044004094010020A403002001F4007261
:10182000B2F5007F00D100BFCA430280704721B1EA
:10183000828942F40052828104E082894DF6FF736E
:101840001A408281704702460020B1F5007F00D126
:1018500000BF13880B400BB1012000E0002070474F
:1018600070B50246002400230025002040F66A16C9
:10187000B14200D100BFC1F3421501F01F030126A0
:1018800006FA03F3012D02D19689334006E0022DBA
:1018900002D1168A334001E0968A33400C120126A9
:1018A00006FA04F41688344013B10CB1012000E0AC
:1018B000002070BDF0B5034600240026002500205E
:1018C00040F66A17B94200D100BF1846C1F342146E
:1018D00001F01F06012707FA06F5012C01D10C3093
:1018E00004E0022C01D1103000E014301AB1076876
:1018F0002F43076002E00768AF430760F0BD0000B8
:101900002DE9FF4705460E460024A14600BFA0462C
:10191000B08900B100BF2C8A24F44054F0880443FD
:101920002C82AC8941F20C608443B0883189084331
:10193000718908430443AC81AC8A24F44074B089B3
:101940000443AC826846FFF7B1FC2048854202D0D0
:101950001F48854202D1DDF80C9001E0DDF80890C7
:10196000A88900F4004040B109EBC90000EB091060
:1019700031684900B0FBF1F707E009EBC90000EB63
:10198000091031688900B0FBF1F76420B7FBF0F073
:1019900004012009642101FB1078A88900F40040AB
:1019A00040B1322000EBC800B0FBF1F000F00700BE
:1019B000044308E0322000EB08106421B0FBF1F092
:1019C00000F00F0004432C81BDE8FF8700100140A8
:1019D0000014014000BFFEE703B4019841000098E5
:1019E00050EAC12018BF04204A0D18BF40F0010082
:1019F00040F2FF72B2EB515F08BF40F002000128D5
:101A000008BF052002B070472DE9F04D2DED040B05
:101A10002DED0E8B96B0DDE92550279CDDF890A0CA
:101A200025F0004624F00048BAF1000F14BF012150
:101A3000002101EB4502FC4953184A1093422AD376
:101A4000002814BF0123002303EB44030B44F74990
:101A50008B4220D358EA00019FEDF59B76D0DFF84A
:101A6000D8B35D4503D1BAF1000F05D188E0BAF1D2
:101A7000000F08BF002100D0012101EB450111F545
:101A8000001F08D8002814BF0121002101EB4401E8
:101A900011F5001F0BD99DED261B9DED240B16B0F3
:101AA000BDEC0E8B04B0BDE8F04D00F069BE002720
:101AB000002DBCBFE149884521DAE1498845A8BF2E
:101AC00002271CDAC3451ADCDE4901EB2851142930
:101AD00008DDC1F1340220FA02F101FA02F2824279
:101AE0000DD108E058B9C1F1140228FA02F101FA47
:101AF00002F2424503D101F00101C1F1020756EAA9
:101B00000A0124D1002C22DA002D18BF022F01D0A7
:101B1000012F0AD00220FEF7B1FC16B0BDEC0E8BEF
:101B200004B0BDE8F04D00F013BE0220FEF7A6FCA5
:101B300000F00EFE51EC100B01F0ECFD41EC100B2F
:101B400016B0BDEC0E8B04B0BDE8F08D18E09FED33
:101B5000BEAB9FEDBF8B002871D1B848804522D124
:101B600005F1804010F5801008BFBAF1000F07D0D2
:101B7000B3450ADC002CA8BF9DED260BE0DA0DE092
:101B8000B0EE490AF0EE690ADAE7002C06DA9DEDBC
:101B9000260B51EC100B01F0BDFD6FE0AE48784410
:101BA00090ED000BCCE7D8454DD1002C48DA2EB192
:101BB00086423AD1BAF1000F42D126E0BAF1000FC5
:101BC00013D00220FEF75AFC00F0F6FD8DED020B5B
:101BD0009DED240B8DED000B10EE900A039961F33F
:101BE0001E0003909DED020BAAE78DED02AB9DED6B
:101BF000240B1AEE901A10EE900A8DED000B61F393
:101C00001E0003909DED020B9AE78DED028B9DED7A
:101C1000240B18EE901A10EE900A8DED000B61F374
:101C20001E0003909DED020B8AE709DA9DED240B5F
:101C300051EC190B53EC102B01F066FE1EE020E076
:101C40009DED240B7CE786421BDAB4F1804F0DD06A
:101C5000A4F10050B0F1FF5013D1002D11DB9DED28
:101C6000240B51EC100B01F0ADFB07E09DED240BB4
:101C700053EC102B51EC100B00F0C2BC41EC100BDC
:101C80005EE79DED240B51EC100B00F0F1FEBAF174
:101C9000000FCDE90E0142D19FED710B46B3A6F1C5
:101CA000E040B0F17F600CD05E4538D1002D00DA05
:101CB000A7B3022F0CBF01204FF0FF3001F0A9FFA6
:101CC000DCE7002D01DD002C0DDA002D01DD002CFC
:101CD0001FDB002D16DA002C14DB012F08BF9FED4F
:101CE000620B3FF42DAFB0EE4A0AF0EE6A0A27E726
:101CF000022F18BF002D0CD0012F0AD1002DFFF6A6
:101D00001FAF06E0002DB8BF002C08DA012F3FF40A
:101D100017AFB0EE480AF0EE680A11E71BE00120A9
:101D200000EBE57050EA070115D0791EB0EE498A44
:101D3000F0EE698A084308BF9FED4D8B4E480025A1
:101D4000804570DD4D494E48884514DDB0420DDBBD
:101D5000002C19DB2FE00120FEF790FB16B0BDEC44
:101D60000E8B04B0BDE8F04D00F016BDB34502DCAB
:101D7000002C09DC1FE0864202DA002C1BDA03E0AB
:101D80005E452BDD002C16DD0220FEF777FB00F010
:101D900013FD8DED020B53EC1A2B51EC180B01F0D7
:101DA000EFFFCDE900010399019861F31E00039054
:101DB0009DED020BC4E60220FEF760FB00F00CFD77
:101DC00010EE901A18EE900A8DED020B8DED008B3F
:101DD00061F31E0003909DED020BB1E69DED0E0B2D
:101DE00053EC192B51EC100B02F0D6F99FED260B9A
:101DF000CDE9080153EC102B9DED080B51EC100BB5
:101E000001F0BEFF9FED221B53EC112B02F0ECF80A
:101E10009DED081B53EC112B01F0B2FF9FED1E1B33
:101E200053EC112B3CE08CE0FFFF1F00FFFF0F0085
:101E3000000000000000F03F0000F03F0000F07FD5
:101E40000000404301FCFFFF000000000000F07FA5
:101E500000000000000000007E2A000000000000DA
:101E60000000000000000080000000000000F0FF03
:101E7000000000000000F0BF0000E0410000F0435F
:101E8000FFFFEF3F00000000000000000000D03F17
:101E9000555555555555D53F000000000000E03F11
:101EA00002F0A2F89DED080B41EC1A0B53EC102B3D
:101EB00051EC100B01F064FF53EC1A2B01F060FFA2
:101EC00041EC1A0B9FEDFE0B53EC102B9DED080B14
:101ED00051EC100B01F054FF41EC1B0B9FEDFA0B82
:101EE00051EC1A0B53EC102B01F04AFF41EC1A0B8A
:101EF0009FEDF70B53EC102B9DED080B51EC100BE5
:101F000001F03EFF53EC1A2B02F046F941EC1A0B9C
:101F100051EC1B0B53EC1A2B01F03AFC0690CDE967
:101F200006519DED060B53EC1B2B51EC100B02F0F0
:101F300033F953EC1A2B02F057F841EC100B00F078
:101F4000A1B90020B6F5801F0EDA9FEDE30B53EC2C
:101F5000102B9DED0E0B51EC100B01F011FFCDE994
:101F60000E016FF034000E4600EB2650A0F2FF3752
:101F7000C6F31300DA4940F07F6646F040568842C7
:101F8000D8BF002408DDD7498142C8BF012403DC43
:101F90000024A6F580167F1CD348784400EBC400CB
:101FA0000F9690ED00CB9DED0E0B53EC1C2B51ECDE
:101FB000100B02F0F1F89DED0E0B41EC1B0B53ECF6
:101FC0001C2B51EC100B01F0E3FB41EC100B51EC1E
:101FD000190B53EC102B01F097FC41EC1D0B51EC4D
:101FE0001B0B53EC1D2B01F0CBFE41EC1A0BBF4831
:101FF0008DED10AB7844109590ED000B4FF0005034
:1020000040EA660000EB84408DED080B00F50020EF
:1020100009909DED080B53EC1C2B51EC100B02F0BA
:10202000BBF89DED0E1B53EC112B01F0DDFF41ECD5
:10203000100B53EC102B9DED100B51EC100B01F01D
:102040009FFE9DED080B41EC1C0B53EC102B9DEDFE
:10205000100B51EC100B01F093FE53EC1B2B01F015
:10206000C3FF53EC1C2B02F097F853EC1D2B01F02F
:1020700087FE41EC1C0B53EC1A2B51EC1A0B01F0B0
:102080007FFE41EC1B0B9A480621B0EE4B0AF0EEA6
:102090006B0A784400F0E0FAB0EE401AF0EE601AF5
:1020A000B0EE41DAF0EE61DA53EC1B2B51EC1B0B76
:1020B00001F066FE53EC1D2B01F062FE9DED100B4E
:1020C00041EC1B0B53EC1A2B51EC100B01F060FB95
:1020D00053EC1C2B01F054FE53EC1B2B01F058FB6E
:1020E0009DED100B41EC1B0B53EC102B51EC100B26
:1020F00001F046FE41EC1D0B9FED7FEB53EC1E2BD8
:1021000001F046FB53EC1B2B01F042FB0890CDE99C
:1021100008519DED080B53EC1E2B51EC100B02F0F7
:102120003BF853EC1D2B02F037F853EC1B2B01F05E
:102130005BFF9DED080B41EC1D0B53EC102B9DED4F
:10214000100B51EC100B01F01BFE41EC1B0B53EC80
:102150001A2B51EC1D0B01F013FE9DED080B41EC09
:102160001A0B53EC102B51EC1C0B01F009FE53EC35
:102170001A2B01F00DFB41EC1A0B51EC1B0B53EC2D
:102180001A2B01F005FB0C90CDE90C519DED0C0BC9
:1021900053EC1B2B51EC100B01F0FEFF53EC1A2BF0
:1021A00001F022FF41EC1B0B9FED550B53EC102B64
:1021B0009DED0C0B51EC100B01F0E2FD41EC1A0B04
:1021C0009FED510B51EC1B0B53EC102B01F0D8FD84
:1021D00041EC1B0B9FED4E0B53EC102B9DED0C0BAC
:1021E00051EC100B01F0CCFD53EC1B2B01F0D0FA9D
:1021F00041EC100B4848784400EBC40090ED001B04
:1022000051EC100B53EC112B01F0C2FA41EC1B0BFB
:10221000384601F0FEFCCDE9080153EC1B2B51ECD4
:102220001A0B01F0B5FA41EC100B3C48784400EB76
:10223000C40090ED00CB51EC100B53EC1C2B01F0C3
:10224000A7FA9DED081B53EC112B01F0A1FA0690A3
:10225000CDE906519DED080B53EC102B9DED060BBF
:1022600051EC100B01F098FF53EC1C2B01F094FF84
:1022700053EC1A2B01F090FF53EC1B2B01F0B4FE32
:1022800041EC100B9DED261B53EC102B8DED001B2C
:1022900000959DED260B51EC100B01F071FD9DEDAD
:1022A000000B41EC1A0B53EC102B9DED260B51EC5F
:1022B000100B01F071FF9DED061B53EC112B2FE06D
:1022C000000000604715F73FFE822B654715F73F7A
:1022D00044DF5DF80BAE543E0000000000004043B8
:1022E0008E9803007AB60B00FA250000282600001D
:1022F000322500000000000000000000000008403F
:10230000000000E009C7EE3FFD033ADC09C7EE3FDD
:10231000F5015B14E02F3EBEBE23000078230000D1
:1023200001F02EFD53EC1A2B01F032FA9DED060B55
:1023300041EC1A0B53EC102B9DED000B51EC100BE4
:1023400001F01EFDCDE90C019DED0C0B51EC1A0BBB
:1023500053EC102B01F01CFACDE902010C46AA49FE
:102360008C422FDB611A084318D19DED0C0B53EC06
:10237000102B9DED020B51EC100B01F00DFF41EC09
:102380001B0B9FEDA30B51EC1A0B53EC102B01F020
:10239000FFF953EC1B2B01F0F1FD2DD20220FEF7CB
:1023A0006DF800F009FA10EE901A18EE900A8DED13
:1023B000020B8DED008B61F31E0003909DED020B6F
:1023C000FFF7BEBB944A24F00041914214D39349D5
:1023D000214408437FF4EFAC9DED0C0B53EC102B24
:1023E0009DED020B51EC100B01F0D6FE53EC1A2BB5
:1023F00001F0C4FD7FF6DFAC24F000408849894A33
:10240000002601EB205182422BDA481C4FF4801148
:1024100021FA00F02044844AC0F30A517A44A1F220
:10242000FF3192ED000B814A8DED080BCA4020EA86
:102430000202C0F3130040F48010C1F1140120FA2D
:1024400001F60992002CB8BF76429DED080B53ECC3
:10245000102B9DED0C0B51EC100B01F09DFECDE906
:102460000C019DED0C0B51EC1A0B53EC102B01F0F1
:102470008FF99FED6F0B0890CDE9085153EC102BAD
:102480009DED080B51EC100B01F07AFC41EC1B0B9D
:102490009FED690B53EC102B9DED080B51EC100BCD
:1024A00001F06EFC9DED0C0B41EC1C0B53EC102B62
:1024B0009DED080B51EC100B01F06EFE53EC1A2B46
:1024C00001F092FD9FED5E1B53EC112B01F058FCC7
:1024D00053EC1C2B01F05CF941EC1A0B51EC1B0B7B
:1024E00053EC1A2B01F054F9CDE902019DED020BDA
:1024F00053EC1B2B51EC100B01F04EFE53EC1A2B3E
:1025000001F072FD9DED020B41EC1A0B53EC102B08
:1025100051EC100B01F034FCCDE908014A489DED67
:10252000080B0521784400F097F89DED081B51EC4D
:10253000100B53EC112B01F023FC9DED021B53EC0F
:10254000112B01F051FDCDE906019DED020B53EC7D
:102550001A2B51EC100B01F013FC53EC1A2B01F069
:1025600017F99FED3B0B41EC1A0B53EC102B9DED33
:10257000060B51EC100B01F00FFE9DED060B41EC2C
:102580001B0B53EC102B9DED020B51EC100B01F0CB
:10259000F7FB53EC1B2B01F0B7F953EC1A2B01F0AE
:1025A000FBFD9DED021B53EC112B01F0F5FD53ECEF
:1025B000192B01F019FDCDE9020101EB06500115BF
:1025C0000029C8BF039015DC9DED020B324651EC8B
:1025D000100B01F098FFFFF7FFF9042808BF00F087
:1025E000FBF832469DED020B51EC100B01F08BFF16
:1025F000CDE902019DED020B51EC180B53EC102BB1
:1026000001F0BEFBFFF73ABB000090400000000065
:10261000FE822B654715973C00CC904000346F3FFD
:1026200001FCFFFF0000E03F00220000FFFF0F0061
:1026300000000000432EE63F396CA80C615C20BE10
:10264000EF39FAFE422EE63FD020000000000000E5
:10265000000000000000004070B504462DED028B24
:102660004D1E00EBC500B0EE408AF0EE608A90EDA2
:10267000000B35F0060017D053EC182B51EC100B63
:1026800001F07EFB41EC100B6D1E04EBC50090EDDC
:10269000001B51EC100B53EC112B01F079F841ECBD
:1026A000100B35F00600E7D1022D36D0042D1CD0DA
:1026B000062D1CBFBDEC028B70BD53EC182B51ECEA
:1026C000100B01F05DFB94ED0A1B53EC112B01F094
:1026D0005FF853EC182B01F053FB94ED081B53ECFF
:1026E000112B01F055F841EC100B53EC182B51EC69
:1026F000100B01F045FB94ED061B53EC112B01F080
:1027000047F853EC182B01F03BFB94ED040B53EC12
:10271000102B01F03DF841EC100B53EC182B51EC51
:10272000100B01F02DFB94ED021B53EC112B01F06B
:102730002FF853EC182B01F023FB94ED001B53EC06
:10274000112B01F025F8BDEC028B41EC100B70BD94
:102750009FED070B10B553EC102B9FED070B51ECC1
:10276000100B01F0D1F841EC100B10BD000000007F
:102770000000000000000000000000000000F03F2A
:1027800010B553EC112B51EC100B01F001F841EC9A
:10279000100B10BD000000009FED050B10B553ECB1
:1027A000102B51EC100B01F0AFF841EC100B10BDE9
:1027B00000000000000000009FED050B10B553EC79
:1027C000102B51EC100B01F0DBFA41EC100B10BD9B
:1027D00000000000000000709FED050B10B553ECE9
:1027E000102B51EC100B01F0CBFA41EC100B10BD8B
:1027F000000000000000001070470000B0EE401A1A
:102800009FED120A124880ED020AB1EE040A80ED33
:10281000040A31EE600A80ED000A90ED020AD0ED64
:10282000001A20EE210AD0ED001A90ED012A71EE77
:10283000C21A90ED042A02EE210A80ED050A90EDFD
:10284000000A80ED010A90ED050A70470000484239
:102850003C0300201CB5FEF787FCFEF78DFCFEF75D
:10286000B7F9FEF7BDF96846FEF7D8F90748DDE984
:10287000001206C00549086800F094F8DFED040A6C
:1028800080EE201A034880ED001A1CBD780100205C
:1028900000401C468001002010B504466FF0040083
:1028A000FEF74CFEE11704EB5171C1F3C701074A73
:1028B00011701046007800EB4001C1EBC0104FF6DC
:1028C000FF7101EAC0000249088010BD9601002096
:1028D0009801002070B504464FF4077094FBF0F0A7
:1028E000C6B24FF4077094FBF0F100FB114085B2C3
:1028F00005E04FF4077000F02FF8701EC6B2002EEE
:10290000F7D115B1284600F027F870BD0146114AED
:1029100012784A434FF0E0235A6100229A611A4626
:10292000126942F001021A6100BF4FF0E022106903
:1029300000F001021AB100F48032002AF5D04FF005
:10294000E022126922F001024FF0E0231A61002216
:102950009A617047960100200146114A12884A4345
:102960004FF0E0235A6100229A611A46126942F040
:1029700001021A6100BF4FF0E022106900F001026D
:102980001AB100F48032002AF5D04FF0E02212692B
:1029900022F001024FF0E0231A6100229A61704791
:1029A000980100209FED280AF0EE400A2749097897
:1029B00011BB0A21B0FBF1F1254A12681144244AE7
:1029C000116024490968491C224A116011460968AE
:1029D0000A2902DB01211D4A11701F4991ED020AEB
:1029E0001E4981ED000A1C4991ED020A1B4981ED47
:1029F000010A9FED150A70479FED190A20EE800A23
:102A0000184991ED001AB8EEC11ADFED171A01EE60
:102A1000210AF0EE400ABDEEE00A81ED000A00EE68
:102A2000100AB8EE401A0A4991ED000AB8EEC00A41
:102A300031EE400A9FED0D1AC0EE011AF0EE610A68
:102A4000B0EE600AD7E70000000000008801002017
:102A5000840100208C010020F403002014000020D9
:102A6000CDCC4C3E90010020CDCC4C3F48E17A3F8C
:102A700082B0CDE9000121F0004001909DED000BF6
:102A800002B051EC100B704710B5002400BF06E0F7
:102A90004249E01C085C424941F82400641C222C95
:102AA000F6DB72B622223E493E48FEF787FC62B64C
:102AB0003B48007800EE100AB8EE400A3A4880ED34
:102AC000020A3748007900EE100AB8EE400A36488C
:102AD00080ED060A3248007A00EE100AB8EE400A8D
:102AE000314880ED030A2E48007B00EE100AB8EE54
:102AF000400A2D4880ED070A2948007C00EE100AA4
:102B0000B8EE400A284880ED040A2548007D00EE12
:102B1000100AB8EE400A244880ED080A2048007EDA
:102B200000EE100AB8EE400A204880ED020A1C4868
:102B3000007F00EE100AB8EE400A1C4880ED060A3D
:102B4000174890F8200000EE100AB8EE400A174827
:102B500080ED030A124890F8240000EE100AB8EE47
:102B6000400A124880ED070A0D4890F8280000EE50
:102B7000100AB8EE400A0D4880ED040A084890F8A3
:102B80002C0000EE100AB8EE400A084880ED080A52
:102B9000034890F870000649087010BD240000201A
:102BA0008C000020000006083C0300206003002089
:102BB00014010020002000BF0CE0084901EB800157
:102BC00091ED000ABCEEC00A10EE101A044A11542E
:102BD000411CC8B20A28F0DB7047000058000020F2
:102BE00080000020A820FFF757FEFDF723FEFDF729
:102BF000ABFF4FF4A060FEF71DFB00F0DBFC4FF4D1
:102C0000E13000F017FC00F077FC53214CF24F301C
:102C1000FEF7F8FC00F026FA29E1FFF71BFEFDF7AE
:102C20003DFF00F03FF992480078012871D19148AA
:102C3000807830B1012861D0022816D0032869D1EC
:102C4000FFE08D4890ED030ADFED8C0A30EEC00AFC
:102C500080ED030AFFF7AEFF89488A490A680260DF
:102C60004A68426009890181F0E0874890ED000AD6
:102C7000864880ED000A7F488079642824D1834803
:102C800090ED001AF0EE410A90ED011AB0EE410A03
:102C9000FFF7B4FDDFED7E0A30EE200A764880EDC6
:102CA000030A7A4890ED001AF0EE410A90ED011AFD
:102CB000B0EE410AFFF7A2FDDFED750A30EE200A03
:102CC0006D4880ED040A05E06F4890ED000A6F48FA
:102CD00080ED010A684890ED030ADFED680A30EEE6
:102CE000C00A80ED030AFFF765FF65496548026881
:102CF0000A6042684A6000890881A7E05D488079DF
:102D0000642808D1604890ED000A604880ED000A10
:102D10000DE0A3E098E05C4890ED000A5B4880ED90
:102D2000000A594890ED000A584880ED010A5748BA
:102D300090ED001AF0EE410A90ED011AB0EE410A52
:102D4000FFF75CFD4C48D0ED030A30EEC00A80ED81
:102D5000030A4E4890ED001AF0EE410A90ED011A78
:102D6000B0EE410AFFF74AFD4348D0ED040A30EEC9
:102D7000C00A80ED040A90ED030ADFED400A30EE50
:102D8000C00A80ED030AFFF715FF3D483D490A6878
:102D900002604A68426009890181364800796428E6
:102DA00006D13C4890ED020A3B4880ED000A0BE05A
:102DB000384890ED020A384880ED000A354890ED19
:102DC000020A354880ED010A334890ED001AF0EE12
:102DD000410A90ED011AB0EE410A00F043FC26488A
:102DE000D0ED010A30EE200A80ED010A2A4890ED6C
:102DF000001AF0EE410A90ED011AB0EE410A00F01F
:102E000031FC1D48D0ED020A30EEC00A80ED020A06
:102E1000214890ED001AF0EE410A90ED011AB0EE53
:102E2000410A00F01FFC1D4880ED000AFFF7C2FEBA
:102E3000134814490A6802604A684260098901819E
:102E400004E0FFF721FE01E000BF00BF00BF0A2140
:102E50000B4800F0F1FB002005490870104800788D
:102E60000A2804DD00200E49087000F081F9D4E63C
:102E700015010020240000205800002000004843D5
:102E80000000002080000020800100200C000020B5
:102E90000000C842F4030020140000201C000020A1
:102EA000160100206B480079C0F1640000EE100AA2
:102EB000F8EEC00A6848007800EE100AB8EE400A42
:102EC00020EE800ADFED650A80EE201A9FED630A8E
:102ED00071EE000A5F48C078643800EE100AB8EE60
:102EE000C01A5D48007800EE100AB8EE400A21EEE4
:102EF000000A9FED5A1AC0EE011A30EEA10A584896
:102F000080ED010A53480079C0F1640000EE100A18
:102F1000F8EEC00A5048007800EE100AB8EE400AF9
:102F200020EE800ADFED4D0A80EE201A9FED4B0A5D
:102F300070EE410A4748C078643800EE100AB8EED7
:102F4000C01A4548007800EE100AB8EE400A21EE9B
:102F5000000A9FED421AC0EE011A30EEA10A404865
:102F600080ED020A3B488079642834DD3948807955
:102F7000643800EE100AF8EEC00A3748007800EE18
:102F8000100AB8EE400A60EE800A9FED341A80EE17
:102F9000810ADFED320A30EEC00A314880ED030AC3
:102FA0002C488079643800EE100AF8EEC00A2A48EE
:102FB000007800EE100AB8EE400A20EE800A9FED7D
:102FC000271AC0EE010A9FED250A30EE600A244858
:102FD00080ED040A33E01F488079643800EE100A5F
:102FE000F8EEC00A1C48007800EE100AB8EE400A5D
:102FF00020EE800A9FED191AC0EE010A9FED170A14
:1030000030EE600A164880ED030A12488079643871
:1030100000EE100AF8EEC00A0F48007800EE100A21
:10302000B8EE400A60EE800A9FED0C1A80EE810A2D
:10303000DFED0A0A30EEC00A094880ED040A0548AF
:10304000C07900EE100AB8EE400A054880ED070A84
:103050007047000024000020140100200000C84236
:103060005800002000B522223C493D48FEF792F965
:103070003A48007800EE100AB8EE400A394880ED70
:10308000020A3648007900EE100AB8EE400A3548C8
:1030900080ED060A3148007A00EE100AB8EE400AC8
:1030A000304880ED030A2D48007B00EE100AB8EE90
:1030B000400A2C4880ED070A2848007C00EE100AE0
:1030C000B8EE400A274880ED040A2448007D00EE4F
:1030D000100AB8EE400A234880ED080A1F48007E17
:1030E00000EE100AB8EE400A1F4880ED020A1B48A5
:1030F000007F00EE100AB8EE400A1B4880ED060A79
:10310000164890F8200000EE100AB8EE400A164863
:1031100080ED030A114890F8240000EE100AB8EE82
:10312000400A114880ED070A0C4890F8280000EE8C
:10313000100AB8EE400A0C4880ED040A074890F8DF
:103140002C0000EE100AB8EE400A074880ED080A8D
:10315000024890F870000549087000BDB4020020D4
:10316000000006083C03002060030020140100203A
:1031700070B52DED068BFE20884908704870FD2043
:103180008875C875864890ED000AB5EEC00AF1EE64
:1031900010FA11DD00208870814890ED000ADFED03
:1031A000810A20EE200ABCEEC00A10EE100A84B29A
:1031B000200AC8700C712BE001207849887078498A
:1031C00091ED000ADFED770A20EE200ABDEEC00A7D
:1031D00010EE101A88B200F084FD41EC190B9FED3F
:1031E000721B9FED730BFEF70FFCB0EE40AAF0EEE2
:1031F00060AA53EC192B51EC1A0B00F0CDFF41ECF7
:10320000180B00F0D9FC84B2200A6449C8700C7114
:10321000634890ED010AB5EEC00AF1EE10FA12DD36
:1032200000205E4948715E4890ED010ADFED5D0ABD
:1032300020EE200ABCEEC00A10EE100A84B2200A6A
:103240008871CC712BE0012054494871544991EDAB
:10325000010ADFED540A20EE200ABDEEC00A10EE8E
:10326000101A88B200F03DFD41EC190B9FED4E1B8A
:103270009FED4F0BFEF7C8FBB0EE40AAF0EE60AA40
:1032800053EC192B51EC1A0B00F086FF41EC180B94
:1032900000F092FC84B2200A40498871CC71404809
:1032A00090ED020AB5EEC00AF1EE10FA12DD002030
:1032B0003A4908723A4890ED020ADFED3A0A20EEE8
:1032C000200ABCEEC00A10EE100A84B2200A48722E
:1032D0008C722BE0012031490872314991ED020ACC
:1032E000DFED300A20EE200ABDEEC00A10EE101A03
:1032F00088B200F0F6FC41EC190B9FED2B1B9FED03
:103300002C0BFEF781FBB0EE40AAF0EE60AA53EC66
:10331000192B51EC1A0B00F03FFF41EC180B00F099
:103320004BFC84B2200A1D4948728C72224991EDEF
:10333000000ADFED1C0A20EE200ABDEEC00A10EEE6
:10334000100A002801DB014600E041428CB2200A4D
:103350001249C8720C7319480480FE204875012573
:1033600007E00E48407D0D49495D48400B494875CE
:103370006D1C152DF5DB00250BE000BF1048008803
:1033800000F080000028F9D00448405D0C49888096
:103390006D1C182DF1DBBDEC068B70BD9C0200206E
:1033A000F40300200000C84200000000000030408C
:1033B0000000000000000040800100208A00002082
:1033C0000010014000B52DED048B83B041EC190BCA
:1033D00000F016FE41EC180B18EE100A18EE901AC9
:1033E0008DED008B002818BF0120084320F000401D
:1033F000C0F17F6000F1E040C00F14D019EE101A48
:1034000019EE900A8DED009B002918BF0121084399
:1034100020F00040C0F17F6000F1E040C00F04BF29
:103420000120FDF72BF851EC180B03B0BDEC048B19
:1034300000BD000010B588B0044601210846FDF724
:1034400005FF01211020FDF721FF01218805FDF76F
:10345000FDFE072209212648FDF79FF907220A21D0
:103460002348FDF79AF94FF4C060069002208DF8CA
:103470001C008DF81D0000208DF81E0001208DF825
:103480001F0006A91A48FDF740F902940020ADF884
:103490000C00ADF80E00ADF81000ADF814000C20D3
:1034A000ADF8120002A91348FEF72AFA25208DF87C
:1034B000040000208DF8050003208DF8060001208F
:1034C0008DF8070001A8FDF779FE012240F2255191
:1034D0000848FEF7EFF9012240F224410548FEF7C3
:1034E000E9F901210348FEF7A2F908B010BD000078
:1034F000000002400010014000B587B001210846DD
:10350000FDF7A4FE01214804FDF7B0FE07220221C9
:103510002648FDF742F9072203212448FDF73DF92B
:103520000C20059002208DF818008DF8190000205D
:103530008DF81A0001208DF81B0005A91B48FDF726
:10354000E4F84FF4E13001900020ADF80800ADF848
:103550000A00ADF80C00ADF810000C20ADF80E001C
:1035600001A91348FEF7CCF926208DF800000020B1
:103570008DF8010003208DF8020001208DF8030072
:103580006846FDF71BFE012240F225510848FEF770
:1035900091F9012240F224410548FEF78BF90121FF
:1035A0000348FEF744F907B000BD000000000240E8
:1035B0000044004000B587B001210420FDF746FE1D
:1035C00001212020FDF762FE082206211848FDF7A0
:1035D000E4F8082207211648FDF7DFF8C02005901F
:1035E00002208DF818008DF8190000208DF81A00BF
:1035F00001208DF81B0005A90D48FDF786F84FF452
:10360000E13001900020ADF80800ADF80A00ADF8F7
:103610000C00ADF810000C20ADF80E0001A9054813
:10362000FEF76EF901210348FEF701F907B000BD6E
:10363000000802400014014010B5002200BF0CE059
:1036400000BF074B1B8803F04003002BF9D010F894
:10365000013B034C241D2380521C8A42F0DB10BD29
:1036600000140140B0EE401AB7EE000A254880ED84
:10367000020AB7EE000A80ED040A31EE600ADFEDBF
:10368000221AB4EEE10AF1EE10FA08DD31EE600A1A
:10369000DFED1E1A30EE610A80ED000A17E031EE10
:1036A000600ADFED1B1AB4EEE10AF1EE10FA09D25E
:1036B00031EE600ADFED151A30EE210A114880ED77
:1036C000000A04E031EE600A0E4880ED000A0D4861
:1036D00090ED020AD0ED001A20EE210AD0ED001A7A
:1036E00090ED012A71EEC21A90ED042A02EE210A31
:1036F00080ED050A90ED000A80ED010A90ED050AC3
:103700007047000060030020000096430000B443AF
:10371000000096C381F00041704780F00040704780
:1037200021F00041704720F00040704721F0004236
:10373000A2F16052B2F5801F01F0004328BFD2F120
:103740007F6C0BD95FEA001C43EAC20242EB507067
:1037500018BF704728BF20F001007047B2F5801FE6
:10376000BCBF184670474FEA410C1CF5001F02D23F
:10377000084600F030BE70B500F0ACFB00000089D8
:10378000FFF7F6BF4FF00040A0F580007047000043
:1037900010B591EA030F48BF83F0004300F10485A0
:1037A000841A71EB030C05D2121943EB0C03001BB6
:1037B00061EB0C01DFF824E14FEA1154A4EB135C38
:1037C0001EEA430F18BF9EEA445F73D023EA0E033C
:1037D000DCF1200E21EA045143F4801332D322FAA3
:1037E0000CFE10EB0E0023FA0CFE41EB0E01CCF1A7
:1037F000200E03FA0EFE10EB0E0051F10001B1F5A0
:10380000801FCCF1200E32D201EB045112FA0EF2DD
:10381000BDE8104058BF7047401C38BF5FEA420205
:1038200018BF7047002814BF20F0010041F10001CB
:103830004FEA410313F5001F38BF7047A1F1C041A3
:1038400000F096BB012A43EB0302ACF1200CDCF143
:103850001F0E32BF4FF0000E23FA0CF310EB0300E3
:1038600041EB0451B4EB115FD0D0A1EB045101F551
:10387000801149085FEA300001EB04510ED350F18A
:10388000000038BF12FA0EFE08D1BDE81040C9E7AB
:10389000401C38BF5FEA4202CAD1C3E7BDE810400E
:1038A0004FEA410313F5001F38BF7047A1F1C04133
:1038B00000F05EBB9EEA445F08D011EA5E0FBDE8EF
:1038C000104004BF01F0004100207047BDE81040E7
:1038D00070B500F0FFFA00BF64FBBE3E0000E0FFE1
:1038E00002494FF0000000F0DCBD00BF0000F87F8F
:1038F000491058BFC1F140415B1058BFC3F140436C
:103900008B42EFF3008070472DE9C04130B4DFF8FF
:10391000A0C23CEA111418BF3CEA131400F0EC807A
:1039200081EA03051CEA111444EAD57418BF1CEAA5
:10393000131500F0C780A4EB05044FF0004545EADD
:10394000C12145EAC32341EA505143EA525304F1ED
:103950007F74994204F500344FEAC0204FEAC22236
:1039600008BF904200F09C804FEA13650FF24016AA
:10397000765D4FEA134506FB05F7C7F1807706FB36
:1039800007F74FEAD737A7FB03687642C8F58038B8
:10399000A7FB06CE38BFA8F1010807FB08E64FF0E9
:1039A000000EA6FB028CE6FB03CEDCF1000CCEF190
:1039B000004E38BFAEF1010EA6FB0C584FF00007C9
:1039C0004FF00005E6FB0E87A1FB08C6A0FB07CE63
:1039D00016EB0E0645F10005E1FB076515F1E04E1B
:1039E0007EBFA4F580345FEA46066D4116F180077C
:1039F00045F100054FEA17274FEA066647EA0567D3
:103A0000A6F1DE46B6F1805F4FEA15251FD938468C
:103A100024F0010C05EBC471BCF1FE6F01EB0C113D
:103A200002D8F0BCBDE8008124425CBF01F5801ED5
:103A30009EEAC47F02D4F0BCBDE80081244238D4A1
:103A4000F0BCA1F1C041BDE8004100F091BA4FEADD
:103A5000D22242EA43524FEAD323A7FB02864FEA1F
:103A6000D02040EA415007FB03661EEA0E0F4FEAE2
:103A7000D12105FB026658BFA6EB0056B6EB0056F7
:103A80004FEA520E4EEAC37E18EB0E0E56EB530E63
:103A9000BDD518EB02085E417F1C55F10005B6E765
:103AA0004FF480154FF000074FF000064FF000086C
:103AB000ADE7F0BC4FF0000001F1C04101F0004162
:103AC000BDE8008111EA0C1F0CEA131500D00CE0D0
:103AD00013EA0C1F00F025804FF00000F0BC81EAD3
:103AE000030101F00041BDE80081F0BCBDE80041E8
:103AF00081EA030100F03CBAF0BCBDE8004170B5BA
:103B000000F0E8F9097EFC3E00F007B881EA030105
:103B10004FF0000001F00041704781EA030100F01E
:103B200027BAF0BCBDE800414FF0000021497047C2
:103B3000FFFDFBF9F7F5F4F2F0EEEDEBE9E8E6E472
:103B4000E3E1E0DEDDDBDAD8D7D5D4D3D1D0CFCDF9
:103B5000CCCBCAC8C7C6C5C4C2C1C0BFBEBDBCBB32
:103B6000BAB9B8B7B6B5B4B3B2B1B0AFAEADACAB2D
:103B7000AAA9A8A8A7A6A5A4A3A3A2A1A09F9F9E07
:103B80009D9C9C9B9A9999989797969595949393B9
:103B9000929191908F8F8E8E8D8C8C8B8B8A898950
:103BA00088888787868585848483838282818180D3
:103BB0000000FF070000F87F4FEA1153A3F5806370
:103BC000D3F11E03A8BFD3F1200C08DB4FF0004255
:103BD00042EAC12252EA505232FA03F070470942D7
:103BE0000BD4102BC4BF0020704703F5787CBCF1C8
:103BF000FF3F05D04FF0FF3070474FF00000704797
:103C000070B500F067F900BF49922480002070472A
:103C1000F0E710F0004248BF4042B0FA80F310FADB
:103C200003F10AD0C3F11D0303F580634FEA41504D
:103C300002EB035202EBD12170474FF000007047B6
:103C40007FEAE17202D1101A62EB0101B1FA81F34D
:103C50000B3B24D3994012D1B0FA80F310FA03F150
:103C600008BF7047C3F11D0303F5406303EBC22394
:103C70004FEAD1224FEA415002EB03517047C3F1A2
:103C8000200C20FA0CFC9840C3F1320303F540638A
:103C900003EBC22341EA0C0101EB0351704710B55D
:103CA000C3F1320CC3F10004C4F1200E0CF5406CDA
:103CB0000CEBC22201FA0EFC21FA04F100FA0EF319
:103CC000E040BDE8104040EA0C0001EB025138BF73
:103CD0007047401C41F100015B0008BF20F001006B
:103CE0007047B0FA80F310FA03F10AD0C3F11D0354
:103CF00003F580634FEA41504FEA035202EBD121B2
:103D000070474FF00000704751EA030C17D41CF5C0
:103D1000801F58BFBCF5801F00F10680994218BF74
:103D2000704708BF9042704707D711F5801F58BFF2
:103D300013F5801F19D499427047894270471CF5CA
:103D4000801F08D5BCF5801FF7D58B4218BF704780
:103D500008BF824270474FF4001C1CEB410F38BF74
:103D60001CEB430F01D28B42704770B500F0B2F8E4
:103D7000922449004FF000514FF08053FFF7B8BD37
:103D8000DFF848C170B51CEA111E1EBF1CEA1315EE
:103D90009EEA0C0F95EA0C0F00F06F8081EA030495
:103DA00023EA4C134EEAD47E21EA4C1141F48011EF
:103DB00043F48013AE44A1FB024CA0FB0365AEF1BB
:103DC0007F7E361955EB0C05A1FB034C4CF100032B
:103DD000A0FB021C16EB0C06654153F100030942DF
:103DE00018BF46F0010613F4007F0BD14FEA0331F0
:103DF0004FEA0530340341EA155140EA16506FF09E
:103E000003020AE04FEAC3214FEAC520F40241EA67
:103E1000555140EA56506FF0020202EB2E4201EB80
:103E2000025585EACE710AD05FEA440C18BF24F02F
:103E3000004450F1000041F1000120EAD47040F24A
:103E4000FE7C624500D270BDA84214BF4FF0804492
:103E50004FF04044002E08BF0024BEF1806FA8BF81
:103E6000A1F1C041BDE8704080F282804FF00000B7
:103E700001F1C04101F0004170479EEA0C0F0CEACD
:103E8000131518BF95EA0C0F06D04FF0000081EA19
:103E9000030E0EF0004170BD00F01CF88900013ED9
:103EA00000F007B800F009B84FEA430C5FEA5C5C29
:103EB00008D081EA030100F05BB84FEA410C5FEAE9
:103EC0005C5CF6D14FF00000014970470000FF072D
:103ED0000000F87F0EF1020E2EF0030E5EF8046B68
:103EE000364205D4012A43EB030515F5001F12D80D
:103EF000012841EB010C1CF5001F0CD80ED14FEA34
:103F0000D17C15F5001F0CEB4C0C0CF1020C08BF1A
:103F10004CEBD37C04E04FF0080C01E04FEAD37C7B
:103F20000CEB4C0526FA05F606F00706B6F1040C74
:103F300006D20EEB860CBDE870404CF0010C6047D9
:103F4000DFE80CF0090B02024FF000414FF00000D7
:103F5000A1F5002170BD19461046012851EB01045E
:103F600018BFD4F5001484BF002001F0004170BDDB
:103F70000808A0F500114FEA3101704753EA010C1F
:103F800017D41CF5801F58BFBCF5801F00F10680B8
:103F90008B4218BF704708BF8242704707D713F59E
:103FA000801F58BF11F5801F19D48B4270479B4268
:103FB00070471CF5801F08D5BCF5801FF7D59942C6
:103FC00018BF704708BF904270474FF4001C1CEBAD
:103FD000430F38BF1CEB410F01D2994270470FB419
:103FE0000CBC03BCFFF7C1BE91EA030F10B581F012
:103FF00000413FF5D5AB83F0004300F0D5B8000099
:104000002DE9F04101F5801CBCF5001FC0F2A9802C
:104010004FEA115C21EA0C510CF1FD0C41F48011C6
:104020005FEA5C0C0CF5C07C01D34000494130A430
:10403000890241EA905187028E0E0A0CA45D04FBAE
:1040400004F602FB06F6C6F14046A4FB0662F60D36
:1040500046EA422606FB06F4A4FB01235242C3F1C2
:10406000404338BF5B1EA6FB02420024E6FB03244C
:10407000D20B42EA4446A6FB0623A1FB02E2A3FBC5
:1040800007E4E3FB61426442C2F1404E38BFAEF147
:10409000010EA6FB04234FF00002E6FB0E32A2FB4A
:1040A00003463400E2FB6264A1FB06E6A4FB07E8DA
:1040B000E4FB61687642C8F1405838BFA8F10108B6
:1040C000A2FB06E4A3FB08E5E2FB6854A1FB05E6BE
:1040D000A7FB04E8E1FB648618F1200556F1000611
:1040E000A809A8F11B08B10908F03F08B8F10A0FA8
:1040F00040EA86601CD901EB0C51BDE8F08100BF9D
:10410000FCF5EEE8E2DDD8D3CFCBC7C3C0BDB9B66E
:10411000B4B1AEACA9A7A5A3A19F9D9B9A98969573
:104120009392908F8D8C8B898887868584838281FA
:10413000A0FB006800FB01F208EB4208B8EB8728FF
:1041400007D5341858EB0104D5D5401C51F10001B6
:10415000D1E7341A78EB0104CDD4401E71F100018F
:10416000C9E75FEA4C0C5FEA9C5C0DD105D34FF0C8
:10417000000001F00041BDE8F081BDE8F04170B5FC
:10418000FFF7A8FE6DDBFFBEBDE8F0414FF0000079
:10419000004970470000F87F10B591EA030F48BF4F
:1041A00083F000433FF5FCAA841A71EB030C07D29D
:1041B00012198CF0004C43EB0C03001B61EB0C015B
:1041C000DFF8A4E14FEA1154A4EB135C1EEA430F9D
:1041D00018BF9EEA445F00F0B08023EA6E035242AB
:1041E00021EA0451C3EB6E0338BF5B1EDCF1200EE5
:1041F00025D322FA0CFE10EB0E0043FA0CFE41EB25
:104200000E01CCF1200E03FA0EFE10EB0E0051F160
:104210000001CCF1200E29D412FA0EF201EB045168
:10422000BDE8104058BF7047401C1CBFB2F1004FA2
:10423000704700280CBF491C20F00100704712EBAA
:10424000020E43EB030218BF4FF0010E4EEA42028A
:10425000ACF1200CDCF11E0E54D943FA0CFE10EB2D
:104260000E0051F1FF31CCF11E0ED5D50EF1010E2D
:1042700012FA0EFE404141EB010101EB445C5FEAA2
:104280005C5C10D910EBDE7001EB045138BFBEF15D
:10429000004FBDE8104018BF704700280CBF491CF4
:1042A00020F00100704730D24FEAD42C11F50011F4
:1042B00024F400641BD0B1FA81F20B3AA41AA41EB4
:1042C000D2F12003914030FA03F31943904001EBFF
:1042D000CC71002C01EB0451BDE81040A8BF704721
:1042E00001F1C0414FF0000001F000417047B0FA09
:1042F00080F310FA03F100D110BDE41A173C480511
:10430000C90AE4E701EB045110BD491001EB045167
:10431000BDE810404FEA300002E04FF00001704766
:104320004A0008BF0042F8D0B2F5001F28BF70470E
:1043300001F000414FF0000070479EEA445F07D053
:1043400011EA5E0FBDE8104004BF00210020704755
:10435000BDE8104070B5FFF7BDFD00BF40DFF63E81
:1043600083F00041104670470000E0FF4FF07E529E
:1043700009E011F0004204D54042C1F1000138BF0C
:10438000491E42F07E520B0002F1706212BF2023E0
:104390005FEA00017047B1FA81FCA3EB0C0301FA5C
:1043A0000CF120FA03FC02EBC352C3F1200341EAF3
:1043B0000C0110FA03FC5CEA416C42EB112018BFBF
:1043C0005FF0806C28BF20F0010070474FF0407014
:1043D000E1EE100A7047FF2141EAD050C005704756
:1043E0004FEAC1230A1543EA50534FEAC02C18BFC5
:1043F00043F000431BD4A2F24E02D2F57C7240F38C
:104400004280502AA8BF502223FA02F12CFA02F06F
:10441000D2F1200260B403FA02F588BF2843C2F14A
:10442000000223FA02F598BF284360BC704702F5EA
:104430007C7212F5826F08BF23F00043D2F12E0286
:1044400021DB1AD0502AA8BF502223FA02F12CFAFD
:1044500002F0D2F1200260B403FA02F588BF2843CB
:10446000C2F1000223FA02F598BF284360BC404223
:10447000C1F1000138BF491E70479CF0000F08BF12
:1044800093F0004FDED070B5FFF724FD92244980F1
:1044900000214FF0000070476FEAE17080F00041AA
:1044A00070470CF00F03092B08BF082000F059805B
:1044B0000A2B0BD0082B18BF704708BF1CF0400F09
:1044C0000AD04FF000004FF0000170471CF0400F81
:1044D00018BF4FF0004070471CF0100F08D020F0BC
:1044E000704300F07F4242EAD3014FEA43707047C5
:1044F00000F0604021F07F4242EA000201F07F407C
:1045000040EA727070474FF0FF0C4CF4E06C1CEA0C
:1045100011531CBF9CEA030C9445C2BFDA4201EB65
:1045200002517047002B0DD0BCF1000F0FD0002AB4
:1045300001F00041A4BF41F0E04141F07F614FF044
:104540000000704701F000414FF00000704750EA52
:1045500001334FF09B0C18BF4CF0806C7FF4C0A966
:1045600070471CF4801F11D01CF4E02F03D06FEAB9
:10457000CC31490070474FF04050EFF3008222F0F9
:10458000704242EA000282F3008870474FF0000058
:104590007047000000000000000000000000F03F35
:1045A000000000000000F83F0000000000000000D4
:1045B0000000004003B8E23F0000000000000000DF
:1045C00006D0CF43EBFD4C3E033333333333E33F6D
:1045D000FFAB6FDBB66DDB3F4D268F515555D53F99
:1045E00001411DA96074D13F65DBC9934A86CD3F67
:1045F000EF4E454A287ECA3F3E5555555555C53F55
:1046000093BDBE166CC166BF2CDE25AF6A56113F46
:10461000F16BD2C541BDBBBED0A4BE726937663E48
:1046200000000000000000004846000800000020D4
:10463000AC010000C401000890460008AC01002055
:10464000CC080000200200081BAF640141021AAF31
:1046500013FEEF6926011F2AFA28446464FA232F07
:1046600043CBC842040110AB2F43803201320232E7
:104670000332043205320632073208026709092282
:10468000EA01662D01020304041C060708FD000070
:040000050800018965
:00000001FF
